:0400000048EF10F0C5
:1006000000546865206C6F677320617265206173A8
:1006100020666F6C6C6F77733A0A0D0020204C6F68
:10062000677320436C65617265642020002020534D
:1006300075636365737366756C6C79202000204464
:100640006F776E6C6F61646564204C6F6720002368
:100650002054696D652020202020455620535000ED
:1006600054696D65202020202045562020205350BD
:100670000020202045584954494E4700202020534F
:10068000415645440048483A4D4D3A5353004E4F69
:09069000204C6F6773002A000082
:10069A00850E036E0350D8A4060E046E810E056EF5
:1006AA0017EC0FF00001D451D511D8A45FEF03F075
:1006BA0061EF03F06BEF03F0000ED16F010ED06F04
:1006CA00000ECF6F020ECE6F90EF03F0D405D51156
:1006DA00D8A472EF03F074EF03F07EEF03F0000E7C
:1006EA00D16F040ED06F000ECF6F050ECE6F90EF54
:1006FA0003F0020ED419D511D8A486EF03F088EFBF
:10070A0003F090EF03F0000ED16F070ED06F000ECA
:10071A00CF6F080ECE6FD2510B6ED3510C6ED24BE7
:10072A00D32B0CBEA4EF03F00C5007E1650E0B5C53
:10073A00D8B0A2EF03F0A4EF03F0B3EF03F0D05167
:10074A00C00F096E200EEBEC10F00001CE51C00F65
:10075A00096E200EEBEC10F0CEEF03F0D3BFC1EF21
:10076A0003F0D35107E1C90ED25DD8B0BFEF03F051
:10077A00C1EF03F0CAEF03F0C20E036E046AC10EA2
:10078A00056E17EC0FF0CEEF03F0000ED36F000EDC
:10079A00D26F0001C2510A0DF3CF0BF0F4CF0CF067
:1007AA00C3510B26000E0C22F00E0B24D86FFD0E3F
:1007BA000C20D96FC5510A0DF3CF0BF0F4CF0CF012
:1007CA00C6510B26000E0C22F00E0B24DA6FFD0E1A
:1007DA000C20DB6FC8510A0DF3CF0BF0F4CF0CF0ED
:1007EA00C9510B26000E0C22F00E0B24D66FFD0EFB
:1007FA000C20D76F020E5F18D8A406EF04F008EF9A
:10080A0004F018EF04F0D44BD52B030ED419D511EC
:10081A00D8A412EF04F014EF04F018EF04F0000E5D
:10082A00D56F000ED46F5F04D8A41EEF04F020EF3A
:10083A0004F057EF04F0D451D511D8A427EF04F0EF
:10084A0029EF04F057EF04F0D84BD92B180ED8191A
:10085A00D911D8A433EF04F035EF04F039EF04F0DE
:10086A00000ED96F000ED86FD8C001F0D9C002F0BF
:10087A00000E046E0A0E036E45EC0DF00150300FA7
:10088A000001C26FD8C001F0D9C002F0000E046E98
:10089A000A0E036EA6EC0DF00150300F0001C36F73
:1008AA00D4EF04F05F04D8A45DEF04F05FEF04F026
:1008BA0096EF04F0D405D511D8A466EF04F068EFDA
:1008CA0004F096EF04F0DA4BDB2B3C0EDA19DB115D
:1008DA00D8A472EF04F074EF04F078EF04F0000E7D
:1008EA00DB6F000EDA6FDAC001F0DBC002F0000E37
:1008FA00046E0A0E036E45EC0DF00150300F000134
:10090A00C56FDAC001F0DBC002F0000E046E0A0EF9
:10091A00036EA6EC0DF00150300F0001C66FD4EF44
:10092A0004F05F04D8A49CEF04F09EEF04F0D4EF27
:10093A0004F0020ED419D511D8A4A6EF04F0A8EF3A
:10094A0004F0D4EF04F0D64BD72B3C0ED619D711AE
:10095A00D8A4B2EF04F0B4EF04F0B8EF04F0000E3C
:10096A00D76F000ED66FD6C001F0D7C002F0000EC6
:10097A00046E0A0E036E45EC0DF00150300F0001B3
:10098A00C86FD6C001F0D7C002F0000E046E0A0E7E
:10099A00036EA6EC0DF00150300F0001C96F040E72
:1009AA005F18D8A4DBEF04F0DDEF04F05CEF05F08C
:1009BA00D8C001F0D9C002F0000E046E0A0E036E10
:1009CA00A6EC0DF001C00BF002C00CF0D8C001F08B
:1009DA00D9C002F0000E046E0A0E036E45EC0DF04B
:1009EA000138F00B0B10096E020EC1EC10F0DAC0E0
:1009FA0001F0DBC002F0000E046E0A0E036EA6ECD4
:100A0A000DF001C00BF002C00CF0DAC001F0DBC03F
:100A1A0002F0000E046E0A0E036E45EC0DF001386A
:100A2A00F00B0B10096E010EC1EC10F0D6C001F0EC
:100A3A00D7C002F0000E046E0A0E036EA6EC0DF08B
:100A4A0001C00BF002C00CF0D6C001F0D7C002F012
:100A5A00000E046E0A0E036E45EC0DF00138F00B21
:100A6A000B10096E000EC1EC10F0000E016E010EA3
:100A7A0065EC10F07C0E036E0350D8A4060E046ECB
:100A8A00810E056E17EC0FF01A0E0C6E5E0E0B6ED1
:100A9A006E0EE82EFED70B2EFCD70C2EFAD700D0FE
:100AAA00050E0001C16F000ED56F000ED46F050E42
:100ABA005F18D8A463EF05F065EF05F087EF05F03E
:100ACA00050EC16F000E016E010E65EC10F0710E7D
:100ADA00036E0350D8A4060E046E810E056E17EC41
:100AEA000FF01A0E0C6E5E0E0B6E6E0EE82EFED70F
:100AFA000B2EFCD70C2EFAD700D0000E0001D56FB2
:100B0A00000ED46F12001250800B1F6E1250122466
:100B1A00266E11AE93EF05F095EF05F096EF05F00E
:100B2A0026802650D8B49CEF05F09EEF05F0B2EF70
:100B3A0005F02628D8A4A4EF05F0A6EF05F0AEEF3D
:100B4A0005F0000E0F6E000E106E000E116E000EF4
:100B5A00126E118E126ABAEF05F0000E0F6E000EB9
:100B6A00106E000E116E000E126E1650800B1F1AB8
:100B7A0016501624276E15AEC5EF05F0C7EF05F01F
:100B8A00C8EF05F027802750D8B4CEEF05F0D0EF94
:100B9A0005F0E4EF05F02728D8A4D6EF05F0D8EF42
:100BAA0005F0E0EF05F0000E136E000E146E000E55
:100BBA00156E000E166E158E166AECEF05F0000E15
:100BCA00136E000E146E000E156E000E166E135084
:100BDA00141015101610D8A4F5EF05F0F7EF05F06C
:100BEA000FEF06F0000E0F6E000E106E000E116E63
:100BFA00000E126E800E11127F0E12121F50121268
:100C0A000FC00FF010C010F011C011F012C012F096
:100C1A004FEF07F02650D8A415EF06F017EF06F0AD
:100C2A0021EF06F0000E0F6E000E106E000E116E10
:100C3A00000E126E4FEF07F0275026C017F0186A01
:100C4A00175E000E185A7F0E1724206E000E182009
:100C5A00216E0FC01BF010C01CF011C01DF012C095
:100C6A001EF0000E0F6E000E106E000E116E000EBA
:100C7A00126E000E226E000E236E000E246E000EFF
:100C8A00256E276A81EF06F02750D8B44FEF06F099
:100C9A0051EF06F068EF06F0D8901B361C361D3669
:100CAA001E36D8900F3610361136123625AE60EF42
:100CBA0006F062EF06F063EF06F00F80D890223656
:100CCA0023362436253613501B5C14501C581550F5
:100CDA001D5816501E58D8A075EF06F077EF06F08B
:100CEA0080EF06F0258C13501B5E14501C5A1550C9
:100CFA001D5A16501E5A272A190E276487EF06F026
:100D0A0089EF06F049EF06F01B501C101D101E104B
:100D1A00D8B492EF06F094EF06F0ACEF06F022801A
:100D2A00ACEF06F0D8900F3610361136123625AED3
:100D3A00A1EF06F0A3EF06F0A4EF06F00F80D8901B
:100D4A0022362336243625362006D8A0210611AEAF
:100D5A00B1EF06F0B3EF06F097EF06F0276A25AE7B
:100D6A00B9EF06F0BBEF06F0DFEF06F0FF0E221434
:100D7A00176EFF0E2314186EFF0E2414196E7F0EC1
:100D8A0025141A6E1750181019101A10D8B4D0EF6B
:100D9A0006F0D2EF06F0D6EF06F0010E276EDFEF6F
:100DAA0006F00FA0DBEF06F0DDEF06F0DFEF06F04E
:100DBA00D2EF06F02750D8B4E5EF06F0E7EF06F0D9
:100DCA000BEF07F0010E0F26000E1022112212223D
:100DDA0012A0F2EF06F0F4EF06F00BEF07F00FC0E7
:100DEA0017F010C018F011C019F012C01AF01A3416
:100DFA001A3219321832173217C00FF018C010F011
:100E0A0019C011F01AC012F0204A212A21BE16EF89
:100E1A0007F0215008E12028D8A016EF07F018EFB4
:100E2A0007F023EF07F0000E216E2068000E0F6E08
:100E3A00000E106E000E116E000E126E21BE30EF03
:100E4A0007F0215006E12004D8B02EEF07F030EF6A
:100E5A0007F03DEF07F0000E216E000E206E000E27
:100E6A000F6E000E106E000E116E000E126E1F6ACB
:100E7A0020C026F026A044EF07F046EF07F049EF1E
:100E8A0007F0118E4AEF07F0119ED8902630126EA5
:100E9A0003EF06F0120050EC0EF020EEA4F010EE74
:100EAA0033F01A0EDBCFE3FFE806FCE25A6A600E63
:100EBA00036E0350D8A4060E046E800E056E17EC5E
:100ECA000FF0C20E036E046AC00E056E17EC0FF027
:100EDA00040E05EC10F001C058F002C059F0AE0E35
:100EEA00136E470E146E250E156E410E166E58C0FF
:100EFA0001F059C002F0036A046A000EBDEC0AF060
:100F0A0001C00FF002C010F003C011F004C012F0CB
:100F1A0088EC05F00FC028F010C029F011C02AF0A3
:100F2A0012C02BF0C2EC0CF028505C6ECF0E096E8A
:100F3A005CC001F0026A000E046E0A0E036EA6EC93
:100F4A000DF00150300FEBEC10F0CE0E096E5CC0C4
:100F5A0001F0026A000E046E0A0E036E45EC0DF0F3
:100F6A000150300FEBEC10F0030E5F18D8A4C0EF5D
:100F7A0007F0C2EF07F0C8EF07F0080E0001E16FB3
:100F8A005A2AF9EF07F05F04D8A4CEEF07F0D0EFA2
:100F9A0007F0DDEF07F0070E0001E161D7EF07F078
:100FAA00D9EF07F0DDEF07F0E12B5A2AF9EF07F046
:100FBA00020E5F18D8A4E4EF07F0E6EF07F0F9EFA6
:100FCA0007F0010E0001E165EDEF07F0EFEF07F022
:100FDA00F9EF07F0080EE161F5EF07F0F7EF07F018
:100FEA00F9EF07F0E1075A2A080E0001E119D8A41F
:100FFA0001EF08F003EF08F016EF08F05F04D8B429
:10100A0009EF08F00BEF08F014EF08F0020E5F1872
:10101A00D8A412EF08F014EF08F016EF08F0020E49
:10102A00E16FE151030DF350330F326E32C003F01A
:10103A00046AC90E056E17EC0FF05A50D8B428EF9F
:10104A0008F02AEF08F0A8EF08F00001DDBF39EF39
:10105A0008F0DD5107E10A0EDC5DD8B037EF08F081
:10106A0039EF08F03BEF08F0DC4BDD2BC2C04EF045
:10107A00C3C04FF0C5C050F0C6C051F0C8C052F04E
:10108A00C9C053F0E151030DF350330FD96EDA6A38
:10109A00DF50546EE151030DF3CF32F0010E3226C8
:1010AA003250330FD96EDA6ADF50556E5CC001F0E8
:1010BA00026A000E046E0A0E036E45EC0DF0015032
:1010CA00300F566E5CC001F0026A000E046E0A0E02
:1010DA00036EA6EC0DF00150300F576E0A0E000198
:1010EA00DC19DD11D8A47CEF08F07EEF08F093EF4D
:1010FA0008F05D6A5D500A0F97EC10F0046E5D50BF
:10110A0028EC10F05D2A590E5D648EEF08F090EF1E
:10111A0008F07FEF08F05A0E0001E06F5B6A5B503F
:10112A004E0FD96EDA6ADF50046EE05128EC10F0E7
:10113A000001E02B5B2A090E5B64A6EF08F0A8EF1A
:10114A0008F094EF08F0040E5F18D8A4AFEF08F087
:10115A00B1EF08F0B9EF08F0000E016E010E65EC70
:10116A0010F0050E0001C16F120020EE60F010EEC3
:10117A0008F0430EDBCFE3FFE806FCE2030E5E60F5
:10118A00C9EF08F0CBEF08F0E7EF08F05E50110D59
:10119A00F350080F066E06C003F0046A820E056E4D
:1011AA0017EC0FF05E50110DF3CF06F0110E062664
:1011BA000650080F076E07C003F0046AC20E056ED8
:1011CA0017EC0FF00001DE51D8A4EEEF08F0F0EFB3
:1011DA0008F006EF09F0960E036E0350D8A4060E27
:1011EA00046E800E056E17EC0FF02B0E036E035083
:1011FA00D8A4060E046EC00E056E17EC0FF01AEF97
:10120A0009F02B0E036E0350D8A4060E046E800E4E
:10121A00056E17EC0FF0960E036E0350D8A4060E57
:10122A00046EC00E056E17EC0FF0020E5F18D8A4FC
:10123A0021EF09F023EF09F03BEF09F00001DE513D
:10124A00D8A42AEF09F02CEF09F030EF09F0010ECB
:10125A00DE6F58EF09F0020E5E6036EF09F038EFE4
:10126A0009F058EF09F05E2A58EF09F05F04D8A494
:10127A0041EF09F043EF09F058EF09F00001DE05EC
:10128A00D8A44AEF09F04CEF09F04FEF09F0DE6BF2
:10129A0058EF09F05E50D8B455EF09F057EF09F04E
:1012AA0058EF09F05E06040E5F18D8A45FEF09F044
:1012BA0061EF09F0BAEF09F0000E016E010E65EC5C
:1012CA0010F00001DE515EC006F0076A0626000E25
:1012DA00072206500710D8A475EF09F077EF09F036
:1012EA007AEF09F0C16BCBEF09F0DE515EC006F070
:1012FA00076A0626000E072206040710D8A488EFFC
:10130A0009F08AEF09F08EEF09F0010EC16FCBEFF9
:10131A0009F0DE515EC006F0076A0626000E0722B3
:10132A00020E06180710D8A49DEF09F09FEF09F0E6
:10133A00A3EF09F0020EC16FCBEF09F0DE515EC0D8
:10134A0006F0076A0626000E0722030E0618071083
:10135A00D8A4B2EF09F0B4EF09F0B8EF09F0030E20
:10136A00C16FCBEF09F0CBEF09F0050E5F18D8A4D7
:10137A00C1EF09F0C3EF09F0CBEF09F0000E016EDF
:10138A00010E65EC10F0040E0001C16F120000019D
:10139A00DC51DD11D8A4D4EF09F0D6EF09F0F8EF4B
:1013AA0009F0000E016E010E65EC10F08E0E036E50
:1013BA000350D8A4060E046E800E056E17EC0FF0CB
:1013CA00330E0C6EBB0E0B6EE00EE82EFED70B2E04
:1013DA00FCD70C2EFAD7050E0001C16F000E016E64
:1013EA00010E65EC10F0116A5F50D8A4FFEF09F006
:1013FA0001EF0AF004EF0AF0112A3DEF0AF0020E9B
:10140A005F18D8A40BEF0AF00DEF0AF02AEF0AF0E2
:10141A00FF0E0001DC250B6EFF0EDD210C6EDF5185
:10142A000D6E0E6A0B500D5C0E50800A0F6E0C503A
:10143A00800A0F58D8B024EF0AF026EF0AF02AEFF4
:10144A000AF0DF2B112A3DEF0AF05F04D8A430EF2F
:10145A000AF032EF0AF03DEF0AF00001DF51D8B48A
:10146A0039EF0AF03BEF0AF03DEF0AF0DF07112AE5
:10147A001150D8B443EF0AF045EF0AF093EF0AF09F
:10148A00106A126A020E1218D8B44EEF0AF050EF20
:10149A000AF059EF0AF0050E1218D8A457EF0AF00D
:1014AA0059EF0AF061EF0AF01250E20FD96EDA6AC8
:1014BA003A0EDF6E88EF0AF0080E1218D8B468EFF9
:1014CA000AF06AEF0AF073EF0AF00B0E1218D8A4AA
:1014DA0071EF0AF073EF0AF07BEF0AF01250E20F95
:1014EA00D96EDA6A200EDF6E88EF0AF01250E20F28
:1014FA00D96EDA6A0001DF510A0DF350102497EC15
:10150A0010F0DF6E102A122A0D0E12648FEF0AF005
:10151A0091EF0AF047EF0AF00001F06B4F0E036EED
:10152A000350D8A4060E046E800E056E17EC0FF059
:10153A00C00E096E0001DF51300FEBEC10F0E20E25
:10154A00036E046AC20E056E17EC0FF0050E5F18E3
:10155A00D8A4B2EF0AF0B4EF0AF0BCEF0AF0000E1A
:10156A00016E010E65EC10F0050E0001C16F12004C
:10157A00096E0950D8B4C4EF0AF0C6EF0AF0E8EFD2
:10158A000AF004BECDEF0AF0CBEF0AF0E8EF0AF05A
:10159A0001C005F002C006F003C007F004C008F05D
:1015AA00051E061E071E081E052A000E0622072211
:1015BA00082205C00BF006C00CF007C00DF008C0E9
:1015CA000EF0F0EF0AF001C00BF002C00CF003C0FD
:1015DA000DF004C00EF00150021003100410D8A43C
:1015EA00F9EF0AF0FBEF0AF005EF0BF0000E016EBF
:1015FA00000E026E000E036E000E046E96EF0BF0E4
:10160A00960E0A6E0FEF0BF00A2AD8900E320D32A0
:10161A000C320B32000E0B14056E000E0C14066E03
:10162A00000E0D14076EFE0E0E14086E05500610FD
:10163A0007100810D8A424EF0BF026EF0BF009EFDF
:10164A000BF034EF0BF00A2A010E0B26000E0C22C7
:10165A000D220E22D8900E320D320C320B32000EB1
:10166A000B14056E000E0C14066E000E0D14076E98
:10167A00FF0E0E14086E0550061007100810D8A4A5
:10168A0049EF0BF04BEF0BF028EF0BF053EF0BF099
:10169A000A06D8900B360C360D360E360DBE58EFAC
:1016AA000BF05AEF0BF062EF0BF0020E0A6060EFDC
:1016BA000BF062EF0BF04DEF0BF00AB067EF0BF097
:1016CA0069EF0BF06AEF0BF00D9ED8900A320AC050
:1016DA0005F0066A076A086A05C008F0076A066A1A
:1016EA00056A05500B1206500C1207500D120850CD
:1016FA000E120950D8B484EF0BF086EF0BF08EEF80
:10170A000BF004BE8DEF0BF08BEF0BF08EEF0BF0AE
:10171A000E8E0BC001F00CC002F00DC003F00EC01B
:10172A0004F01200196A3E0E036E0350D8A4060E86
:10173A00046E800E056E17EC0FF02D0E036E03502B
:10174A00D8A4060E046EC00E056E17EC0FF04D0EEF
:10175A00076E190E066E500EE82EFED7062EFCD71F
:10176A00072EFAD7010E026E0250D8A4060E036E97
:10177A0083EC0FF022EF0CF0186A1A6A020E1A189C
:10178A00D8B4CAEF0BF0CCEF0BF0D5EF0BF0050E87
:10179A001A18D8A4D3EF0BF0D5EF0BF0DDEF0BF04E
:1017AA001A50090FD96EDA6A3A0EDF6E03EF0CF09F
:1017BA00080E1A18D8B4E4EF0BF0E6EF0BF0EFEFCF
:1017CA000BF00B0E1A18D8A4EDEF0BF0EFEF0BF09D
:1017DA00F7EF0BF01A50090FD96EDA6A200EDF6E96
:1017EA0003EF0CF01A50090FD96EDA6A19500A0D74
:1017FA00F350182497EC10F0DF6E182A1A2A0D0EEF
:10180A001A640AEF0CF00CEF0CF0C3EF0BF0176A36
:10181A001950300F02EC11F0200E02EC11F0090EF3
:10182A00026E036A83EC0FF0190E026E0250D8A4FE
:10183A00060E036E83EC0FF0192A1950066E076A1A
:10184A000001DC51065C0750800A086EDD51800AEF
:10185A000858D8A033EF0CF035EF0CF0C1EF0BF0BD
:10186A00000E016E010E65EC10F0050E0001C16F4D
:10187A001200819A818C818E81B246EF0CF048EF7A
:10188A000CF04BEF0CF0010EC1EF0CF081B450EFED
:10189A000CF052EF0CF055EF0CF0040EC1EF0CF007
:1018AA0081B65AEF0CF05CEF0CF05FEF0CF0070E0C
:1018BA00C1EF0CF081B864EF0CF066EF0CF069EF41
:1018CA000CF00A0EC1EF0CF0818A819C818E81B2E4
:1018DA0071EF0CF073EF0CF076EF0CF0020EC1EF23
:1018EA000CF081B47BEF0CF07DEF0CF080EF0CF084
:1018FA00050EC1EF0CF081B685EF0CF087EF0CF006
:10190A008AEF0CF0080EC1EF0CF081B88FEF0CF0E3
:10191A0091EF0CF094EF0CF00B0EC1EF0CF0818AF2
:10192A00818C819E819E81B29DEF0CF09FEF0CF01D
:10193A00A2EF0CF0030EC1EF0CF081B4A7EF0CF08C
:10194A00A9EF0CF0ACEF0CF0060EC1EF0CF081B66B
:10195A00B1EF0CF0B3EF0CF0B6EF0CF0090EC1EFDB
:10196A000CF081B8BBEF0CF0BDEF0CF0C0EF0CF03F
:10197A000C0EC1EF0CF0000E12002A342B34316E1B
:10198A003150D8A4CBEF0CF0CDEF0CF0D7EF0CF020
:10199A00000E286E000E296E000E2A6E000E2B6EA7
:1019AA0044EF0DF028C02CF029C02DF02AC02EF0EB
:1019BA002BC02FF0200EE7EF0CF0D8902F322E32EA
:1019CA002D322C32E82EE2EF0CF02C50306E2A8E9B
:1019DA00FF0E2816FF0E2916FF0E2A16000E2B16CA
:1019EA00960E315E31BEFEEF0CF0FCEF0CF014EFF8
:1019FA000DF03150800A970FD8B006EF0DF008EFBE
:101A0A000DF00AEF0DF0CDEF0CF0D8902B322A3200
:101A1A0029322832313E0AEF0DF02CEF0DF01F0E5D
:101A2A0031641AEF0DF01CEF0DF024EF0DF0CDEF3D
:101A3A000CF0D890283629362A362B363106315002
:101A4A00D8A42AEF0DF02CEF0DF01EEF0DF0305058
:101A5A00D8B432EF0DF034EF0DF03CEF0DF02B1E41
:101A6A002A1E291E286C000E29222A222B2228C06F
:101A7A0028F029C029F02AC02AF02BC02BF0120026
:101A8A00066A04BE4DEF0DF04BEF0DF053EF0DF06B
:101A9A00036C041ED8B0042A010E066E02BE5AEF69
:101AAA000DF058EF0DF060EF0DF0016C021ED8B08A
:101ABA00022A010E061A000E086E000E076E035067
:101ACA000410D8B46BEF0DF06DEF0DF095EF0DF03B
:101ADA00010E056E75EF0DF0D89003360436052A0F
:101AEA0004AE7AEF0DF07CEF0DF071EF0DF0D890A7
:101AFA00073608360350015C04500258D8A088EF14
:101B0A000DF08AEF0DF08FEF0DF00350015E0450D7
:101B1A00025A0780D89004320332052E7CEF0DF06A
:101B2A000650D8B49BEF0DF09DEF0DF0A1EF0DF02C
:101B3A00076C081ED8B0082A07C001F008C002F0D6
:101B4A001200066A02BEAEEF0DF0ACEF0DF0B4EF74
:101B5A000DF0016C021ED8B0022A010E066E04BEF8
:101B6A00BBEF0DF0B9EF0DF0BFEF0DF0036C041EE3
:101B7A00D8B0042A03500410D8B4C6EF0DF0C8EF49
:101B8A000DF0ECEF0DF0010E056ED0EF0DF0D890D0
:101B9A0003360436052A04AED5EF0DF0D7EF0DF063
:101BAA00CCEF0DF00350015C04500258D8A0E0EFCE
:101BBA000DF0E2EF0DF0E6EF0DF00350015E045078
:101BCA00025AD89004320332052ED7EF0DF0065090
:101BDA00D8B4F2EF0DF0F4EF0DF0F8EF0DF0016C60
:101BEA00021ED8B0022A01C001F002C002F012009F
:101BFA00956A9450F80B946E8290C30E036ECD0EC4
:101C0A00E82EFED7032EFCD70000000E016E330E1D
:101C1A0065EC10F01B0E036E9E0EE82EFED7032E07
:101C2A00FCD700D0000E016E330E65EC10F0A60E44
:101C3A00E82EFED700D0000E016E330E65EC10F0D0
:101C4A0000D000D00000000E016E020E65EC10F00C
:101C5A00A60EE82EFED700D0000E016E380E65ECF7
:101C6A0010F0A60EE82EFED700D0000E016E010E6F
:101C7A0065EC10F0040E036E3E0EE82EFED7032E1E
:101C8A00FCD7000E016E0C0E65EC10F0A60EE82EC5
:101C9A00FED700D01200020EACEC10F00001CB6FA0
:101CAA00010EACEC10F00001CC6F000EACEC10F0A1
:101CBA000001CD6FCBAD64EF0EF066EF0EF071EF61
:101CCA000EF0CB390F0B010B300FC26FCB510F0B3C
:101CDA00300FC36F7AEF0EF0CB390F0B030B300FB7
:101CEA00C26FCB510F0B300FC36F3A0EC46FCC3992
:101CFA000F0B0F0B300FC56FCC510F0B300FC66F88
:101D0A003A0EC76FCD390F0B0F0B300FC86FCD517D
:101D1A000F0B300FC96FCA6BC20E036E046AC00E76
:101D2A00056E17EC0FF01200016E0150D8A4A0EF57
:101D3A000EF0A2EF0EF0A6EF0EF03EEC0CF0D8EF8C
:101D4A000EF00104D8A4ACEF0EF0AEEF0EF0D7EF10
:101D5A000EF03EEC0CF0026E0250D8B4B7EF0EF063
:101D6A00B9EF0EF0CAEF0EF00001BF51C011D8B49E
:101D7A00C1EF0EF0C3EF0EF0CAEF0EF0000EC06F07
:101D8A00000EBF6F0250D8EF0EF00250D8A4D0EF69
:101D9A000EF0D2EF0EF0D7EF0EF0000E0001C06F7A
:101DAA00010EBF6F000E1200DEEC10F0010E99EC6E
:101DBA000EF05F6EF9EF0EF050EC07F0DBEF0EF06D
:101DCA00BAEC08F0DBEF0EF0CCEC09F0DBEF0EF02A
:101DDA0097EC0BF0DBEF0EF0B2EC0FF0DBEF0EF04E
:101DEA004DEC03F0DBEF0EF00001C151000AD8B44C
:101DFA00E9EF0EF0010AD8B4EDEF0EF0030AD8B4F9
:101E0A00F1EF0EF0010AD8B4F5EF0EF0070AD8B4D4
:101E1A00E1EF0EF0010AD8B4E5EF0EF0DBEF0EF0B9
:101E2A0000EF00F0000E016E055065EC10F034EF83
:101E3A000FF0010E016E03C0F6FF04C0F7FFF86A47
:101E4A00050EF76403D00800F55005D0F6CFE9FF78
:101E5A00F7CFEAFFEF5065EC10F0034A042A03C0FB
:101E6A00F6FF04C0F7FFF86A050EF76403D008000E
:101E7A00F55005D0F6CFE9FFF7CFEAFFEF5000099A
:101E8A00D8A44AEF0FF04CEF0FF01EEF0FF012003C
:101E9A0056696577206C6F672020202000000000BB
:101EAA0000446F776E6C6F6164206C6F670000008E
:101EBA000000436C656172206C6F6720202000006F
:101ECA000000005365742074696D6520202020008D
:101EDA00000000004F4E00475200474E00473100B5
:101EEA00473200473300473400473500434F00016B
:0B1EFA00000430303A30303A30300045
:101F060099EF0FF002C0F6FF03C0F7FFF86A050E5F
:101F1600F76403D00800F55005D0F6CFE9FFF7CFF8
:101F2600EAFFEF5002EC11F0024A032A02C0F6FF64
:101F360003C0F7FFF86A050EF76403D00800F550F2
:101F460005D0F6CFE9FFF7CFEAFFEF500009D8A496
:101F5600AFEF0FF0B1EF0FF085EF0FF012001C0E90
:101F6600036E0350D8A4060E046E800E056E17ECA1
:101F76000FF02D0E036E0350D8A4060E046EC00E8D
:101F8600056E17EC0FF0330E076EBB0E066EE00EF5
:101F9600E82EFED7062EFCD7072EFAD7000E016EC6
:101FA600010E65EC10F0050E0001C16F000EDF6F2B
:101FB600DFC0E0F0E0C0DCF0DD6B1200000EACEC40
:101FC60010F00B6E0B508009096E000EC1EC10F07C
:101FD600020EACEC10F00B6E0B504009096E020EAF
:101FE600C1EC10F0930E096E070EC1EC10F0000E56
:101FF600ACEC10F00B6E0B507F0B096E000EC1ECB3
:1020060010F01200076E07C003F0D8900336D89080
:102016000336C250C30B0310C26EC282C2B216EFA1
:1020260010F018EF10F011EF10F0C350C4CF03F00A
:10203600046A03C004F0036A0310056E0450066EBA
:1020460005C001F006C002F01200076E2EEC11F07A
:10205600A00E1EEC11F007501EEC11F004501EEC01
:1020660011F02AEC11F00B0E066EB80E056E050681
:10207600D8A00606052806E10628D8A445EF10F0E4
:1020860047EF10F03AEF10F012009A0EF66E1E0EA1
:10209600F76E000EF86E00EE60F010EE6BF00900C1
:1020A600F5CFEEFFE550E150FAE100EECBF0260E5B
:1020B600EE6AE806FDE15F6A5E6A000EF86E0001F0
:1020C600D9EF0EF0026E01B06BEF10F06EEF10F06C
:1020D60082826FEF10F0829202C083FF8284829424
:1020E600958E828082928284829483BE7DEF10F0E8
:1020F6007FEF10F076EF10F08290959E1200948E8E
:10210600949CAC9CAC8AAC98AC96AC84AB8EAB9CE5
:10211600AB88B89EB896B892B890810EAF6E9D887F
:102126009E989D8A9E9A1200026E2EEC11F0A00EC9
:102136001EEC11F002501EEC11F032EC11F0A10E63
:102146001EEC11F024EC11F0036E2AEC11F0035092
:102156001200026E2EEC11F0A00E1EEC11F00250D1
:102166001EEC11F032EC11F0A10E1EEC11F024EC75
:1021760011F0036E2AEC11F0035012000A6E2EECD9
:1021860011F0A00E1EEC11F00A501EEC11F00950D1
:102196001EEC11F02AEC11F01200C08EC09AC08815
:1021A600C096C090C082C094C292C19AC198C46AB7
:1021B600C36AC2801200FDEC0DF0D0EC10F016ECF4
:1021C60011F082EC10F0F7EC10F0E1EC0FF01200D9
:1021D6000A6E000E016E095065EC10F0010E016EDC
:1021E6000A5065EC10F0120094869488280EC66E8C
:1021F600310EC86EC79CC78E9E96A1961200016EC0
:102206009EA808EF11F00AEF11F003EF11F001C0DC
:10221600ADFF12009EA612EF11F014EF11F00DEFB4
:1022260011F09E96120093501F0B936E93501E0949
:10223600936EF19E1200016E01C0C9FF0DEC11F004
:10224600120036EC11F03AEC11F0C9501200C584B8
:102256000DEC11F01200C5800DEC11F01200C582D4
:102266000DEC11F01200C5860DEC11F01200C58AB6
:04227600C588120005
:020000040020DA
:08000000FFFFFFFFFFFFFFFF00
:020000040030CA
:0E000000FF071F1FFF8285FF0FC00FE00F409C
:00000001FF
